:100000000C94D3020C9404030C9404030C94040386
:100010000C9404030C9404030C9404030C94040344
:100020000C9404030C9404030C9404030C94040334
:100030000C9404030C9463110C9404030C940403B7
:100040000C9404030C9404030C9404030C94040314
:100050000C9404030C9404030C9404030C941911E1
:100060000C9404030C94ED110C94C3110C94040330
:100070000C9404030C9404030C9404030C940403E4
:100080000C9404030C9404030C9404030C940403D4
:100090000C9404030C9404030C9404030C94F50FC7
:1000A0000C9404030C9404030C9404030C940403B4
:1000B0000C9404030C9404030C9404030C940403A4
:1000C0000C9404030C9404030C9404030C94040394
:1000D0000C9404030C9404030C9404030C94040384
:1000E0000C9404030C943E040C9491030C94940916
:1000F0000C9426040C9434040C94BE030C94261A1D
:100100000C940B040C944C040C9420040C94660383
:100110000C9438040C9450040C9486090C942A0412
:100120000C946C0B0C9465030C94E00B0C9415046C
:100130000C948A030C9436090C941D040C946703E8
:100140000C9468030C9419040C9472090C94F00834
:100150000C944B040C9463090C9423120C9411041A
:100160000C9442040C94CC090C9430040C94770346
:100170000C94340A0C94460400407A10F35A00A000
:10018000724E18090010A5D4E80000E87648170060
:1001900000E40B54020000CA9A3B000000E1F505A0
:1001A000000080969800000040420F000000A086EA
:1001B00001000000102700000000E803000000001C
:1001C0006400000000000A000000000001000000C0
:1001D00000002C76D888DC674F0823DFC1DFAE59DA
:1001E000E1B1B796E5E3E453C63AE651997696E86D
:1001F000E6C28426EB898C9B62ED407C6FFCEFBCF1
:100200009C9F40F2BAA56FA5F490055A2AF75C931B
:100210006B6CF9676DC11BFCE0E40D47FEF520E651
:10022000B500D0ED902E0300943577050080841E34
:10023000080000204E0A000000C80C333333330F8F
:10024000986E12831141EF8D2114893BE65516CF2C
:10025000FEE6DB18D1844B381BF77C1D901DA4BB38
:10026000E424203284725E228100C9F124ECA1E5ED
:100270003D2720202020202020004D515454203E96
:100280003E2063616D7075732F4353542F726F6FEF
:100290006D3130312F00E29481E29481E29481E269
:1002A0009481E29481E29481E29481E29481E294E7
:1002B00081E29481E29481E29481E29481E29481EA
:1002C000E29481E29481E29481E29481E29481E279
:1002D0009481E29481E29481E29481E29481E294B7
:1002E00081E29481E29481E29481E29481E29481BA
:1002F000E29481E29481E29481E29481E29481E249
:10030000948100202050495220646F742020203DA9
:1003100020436C69636B20746F2074726967676532
:1003200072206D6F74696F6E0020204B6E6F6220BB
:1003300033202020203D20466C6F6F64204C657672
:10034000656C202846432D3337290020204B6E6FE3
:10035000622032202020203D20536D6F6B65204CA1
:100360006576656C20284D512D32290020204B6E7A
:100370006F622031202020203D20434F32204C65E9
:1003800076656C2020284D512D31333529002020F1
:100390005265642042544E2020203D20524649445C
:1003A00020556E617574686F72697A656420536355
:1003B000616E002020477265656E2042544E203DDC
:1003C000205246494420417574686F72697A6564A9
:1003D000205363616E00202053432D494553205321
:1003E000657269616C2042726964676520E280947D
:1003F00020526F6F6D2031303100E29481E29481A0
:10040000E29481E29481E29481E29481E29481E237
:100410009481E29481E29481E29481E29481E29475
:1004200081E29481E29481E29481E29481E2948178
:10043000E29481E29481E29481E29481E29481E207
:100440009481E29481E29481E29481E29481E29445
:1004500081E29481E29481E29481E29481E2948148
:10046000E29481E29481005B5741524E5D20444802
:100470005432322072656164206661696C65640083
:1004800000002100240027002A002D003000330046
:1004900001010000040107010A0100000A0B020922
:1004A0000C0D0E080703040100000000000000000E
:1004B000000000000000000000000000000000003C
:1004C00000000000000012111000000000000000F9
:1004D000000000000000000000000000000000001C
:1004E000000020002300260029002C002F003200ED
:1004F000000100000301060109010000220025009F
:1005000028002B002E0031003400020100000501FC
:1005100008010B0102050505050705080808080282
:100520000202020A0A08080404040401010101018C
:100530000101010303030303030303040707070C7B
:100540000C0C0C0C0C0C0C02020202060606060631
:100550000606060B0B0B0B0B0B0B0B0102102020DE
:100560000808102040102040800201020108040207
:10057000010102040810204080804020100804027D
:1005800001800402018040201008040201080402D6
:1005900001010204081020408001020408102040DC
:1005A00080002312261A11241FBECFEFD1E2DEBF36
:1005B000CDBF00E00CBF17E0A0E0B2E0E2E6F8E457
:1005C00000E00BBF02C007900D92AC32B107D9F723
:1005D00028E0ACE2B7E001C01D92A13FB207E1F70D
:1005E00012E0C2EDD2E000E006C021970109802FA1
:1005F000FE010E94831EC13DD10780E00807A9F7D4
:100600000E94A8120C941F240C940000CF92DF9239
:10061000EF92FF92CF93DF93B091E108A0E08111B8
:10062000AB2F8091E20890E0880F991FAC014052F7
:100630005B4FC090E708D090E808E090E908F090A0
:10064000EA0830E020E0FA01C591D491E881B901CF
:1006500090E080E0EB23EA130AC02F5F3F4F6C1558
:100660007D058E059F0578F36FEF7FEFCB01DF915E
:10067000CF91FF90EF90DF90CF90089520919F074A
:10068000260F3327331F21323105ECF42091C507A3
:10069000FC0190E080E0243069F082E00895A091B0
:1006A0009F072191AC014358584FA40FB52FB11D9E
:1006B0002C930196861798F380919F07680F60939B
:1006C0009F0780E0089581E00895089508950895B2
:1006D000E091740780917307E81730F4F0E0ED5A69
:1006E000F84F808190E008958FEF9FEF08959091EB
:1006F0007407809173072FEF3FEF981748F4E92FA5
:10070000F0E0ED5AF84F208130E09F5F909374073E
:10071000C90108958091730790917407891B990B03
:100720000895CF92DF92EF92FF920F931F93CF9392
:10073000DF937C01CB018A0120915207222389F0AB
:10074000EB016B01C40ED51ECC15DD0569F0699176
:10075000D701ED91FC910190F081E02DC701199531
:10076000F3CF642F0E943E03C801DF91CF911F9108
:100770000F91FF90EF90DF90CF900895CF93DF938C
:100780001F92CDB7DEB76983209152072223F9F07B
:1007900020917507203258F021E030E0FC013383CE
:1007A000228390E080E00F90DF91CF9108958091B7
:1007B0007607E82FF0E0EE5CF84F998190838F5F29
:1007C000809376078093750781E090E0ECCF61E03D
:1007D000CE0101960E943E03F7CF8150823108F08E
:1007E0005AC0E82FF0E08827E750FC4F8F4F0C9459
:1007F000831E19041D040B04110415044B0420046A
:1008000026042A043004340438043E0442044B0411
:1008100046044C045004809180008F7780938000C0
:100820000895809180008F7DF9CF80918000877F2F
:10083000F5CF84B58F7784BD089584B58F7DFBCFC8
:100840008091B0008F778093B00008958091B000C0
:100850008F7DF9CF809190008F77809390000895DD
:10086000809190008F7DF9CF80919000877FF5CFA8
:100870008091A0008F778093A00008958091A000C0
:100880008F7DF9CF8091A000877FF5CF80912001E7
:100890008F77809320010895809120018F7DF9CF7B
:1008A00080912001877FF5CFCF93DF93282F30E011
:1008B000F901E656FB4F8491F901E55AFA4FD491BC
:1008C000F901EB5EFA4FC491CC23A1F081110E9493
:1008D000ED03EC2FF0E0EE0FFF1FE052FB4FA59170
:1008E000B491EC91ED2381E090E009F480E0DF9198
:1008F000CF91089580E090E0FACF1F93CF93DF93DC
:10090000282F30E0F901E656FB4F8491F901E55AB2
:10091000FA4FD491F901EB5EFA4FC491CC23A9F0C0
:10092000162F81110E94ED03EC2FF0E0EE0FFF1F58
:10093000E650FB4FA591B4918FB7F894EC9111114B
:1009400008C0D095DE23DC938FBFDF91CF911F913C
:100950000895DE2BF8CF1092C50781E08093C7077A
:100960001092C60761E084E10E947D0461E085E1A8
:100970000E947D04E9EBF0E080818E7F808380819E
:100980008D7F808388E48093B80085E48093BC00E9
:100990000895CF93DF9391E090937C078823B9F07B
:1009A000C091B800D091BA008091BC008A7B80933E
:1009B000BC0060E084E10E947D0460E085E10E946B
:1009C0007D040E94AB04D093BA00C093B800DF91BD
:1009D000CF910895CF93DF9390E0FC01E55AFA4F51
:1009E00024918B5E9A4FFC0184918823C9F090E09A
:1009F000880F991FFC01E058FB4FA591B491FC01B1
:100A0000E650FB4FC591D49161110DC09FB7F8948A
:100A10008C91209582238C938881282328839FBFE3
:100A2000DF91CF910895623051F49FB7F8943C91D3
:100A3000822F809583238C93E8812E2BEFCF8FB765
:100A4000F894EC912E2B2C938FBFEACF4F925F92AC
:100A50006F927F928F929F92AF92BF92CF92DF92CE
:100A6000EF92FF920F931F93CF938C014A015B018A
:100A700080910002883099F08F3F09F46FC0CF91C8
:100A80001F910F91FF90EF90DF90CF90BF90AF90AC
:100A90009F908F907F906F905F904F900895E4E1CA
:100AA000F5E0C491C7FDEBCF61E088E00E94EA0465
:100AB0002801712C612CCC23E9F0980150E040E032
:100AC000C23009F01FC128013A0160E970ED83E0EE
:100AD00090E00E94141E69017A0181E0C81AD108D1
:100AE000E108F1088FEFC816D104E104F10409F020
:100AF0000CF495C168E478EE81E090E0A3019201E6
:100B00000E94141E69017A0181E0C81AD108E10827
:100B1000F108CC2309F4A1C1C23009F094C18FEFD0
:100B2000C816D104E104F10409F00CF494C164E2A4
:100B300074EF80E090E0A30192010E94141E69010D
:100B40007A0181E0C81AD108E108F10885E09091A6
:100B5000B100987F892B8093B1009BC188E080937E
:100B60000002E4E1F5E0C4918C2FCF3F09F487CF78
:100B7000C23009F468C060F4CC2379F1C13009F4C3
:100B800044C087FD7CCF61E088E00E94EA0495CFF5
:100B9000C43009F499C008F478C0C53091F71092B8
:100BA0002001109221018091210188608093210110
:100BB00080912101816080932101EDE1F5E0E491D4
:100BC000F0E0EE0FFF1FE650FB4F85919491E3E6B6
:100BD000F5E0E491E093EF0767CF14BC15BC84B552
:100BE000826084BD85B5816085BDEDE1F5E0E4916D
:100BF000F0E0EE0FFF1FE650FB4F85919491E3E686
:100C0000F5E0E491E093F6074FCF10928000109248
:100C100081008091810088608093810080918100B3
:100C2000816080938100EDE1F5E0E491F0E0EE0F6A
:100C3000FF1FE650FB4F85919491E3E6F5E0E491C8
:100C4000E093F50731CF1092B0001092B10080917F
:100C5000B00082608093B0008091B1008160809389
:100C6000B100EDE1F5E0E491F0E0EE0FFF1FE6509A
:100C7000FB4F859194919093F4078093F307E3E6FB
:100C8000F5E0E491E093F2070FCF109290001092FC
:100C900091008091910088608093910080919100F3
:100CA000816080939100EDE1F5E0E491F0E0EE0FDA
:100CB000FF1FE650FB4F85919491E3E6F5E0E49148
:100CC000E093F107C3E0F0CE1092A0001092A100D3
:100CD0008091A10088608093A1008091A100816033
:100CE0008093A100EDE1F5E0E491F0E0EE0FFF1F4D
:100CF000E650FB4F85919491E3E6F5E0E491E093B3
:100D0000F007D2CE60E072E18AE790E00E94141E04
:100D100069017A0181E0C81AD108E108F108C130FF
:100D200039F480918100887F816080938100B1C017
:100D3000C33039F480919100887F81608093910065
:100D4000A8C0C43039F48091A100887F816080936D
:100D5000A1009FC0C53009F09CC080912101887F0F
:100D600081608093210195C0C7BC20930B0830930C
:100D70000C0840930D0850930E0880916E0082601D
:100D800080936E007CCEC092B30020930308309312
:100D90000408409305085093060880917000826013
:100DA000809370006CCED0929900C09298002093EE
:100DB000FF07309300084093010850930208809188
:100DC00071008260809371005ACED092A900C092C7
:100DD000A8002093FB073093FC074093FD07509336
:100DE000FE078091720082608093720048CEC4300A
:100DF00061F3CCF2C53009F042CED0922901C09205
:100E000028012093F7073093F8074093F907509390
:100E1000FA078091730082608093730030CE83E084
:100E200096CE62E17AE780E090E0A30192010E9411
:100E3000141E69017A0181E0C81AD108E108F1089D
:100E4000C1E086E084CE8FEFC816D104E104F1043E
:100E500009F03CF7C1E084E07ACE93E08FEFC8164A
:100E6000D104E104F10489F084F062E17AE780E0E2
:100E700090E0A30192010E94141E69017A0181E0B1
:100E8000C81AD108E108F10894E085B5887F892B5C
:100E900085BDD801AA0FBB1FA50194010E94331E76
:100EA00028EE33E040E050E00E943E1EC23009F4DC
:100EB0006ACF0CF09CCFCC2309F456CFC13009F097
:100EC000DECDD0928900C09288002093070830932D
:100ED00008084093090850930A0880916F008260C7
:100EE00080936F00CCCD90917B00977F90937B0097
:100EF0008653806480937C0080917A008064809324
:100F00007A0080917A0086FDFCCF809178009091E4
:100F1000790008953FB7F89480912E0790912F079C
:100F2000A0913007B091310726B5A89B05C02F3F8F
:100F300019F00196A11DB11D3FBFBA2FA92F982FFF
:100F40008827BC01CD01620F711D811D911D42E0FA
:100F5000660F771F881F991F4A95D1F708958F92C2
:100F60009F92AF92BF92CF92DF92EF92FF924B018E
:100F70005C010E948A076B017C010E948A076C1940
:100F80007D098E099F09683E734081059105A8F38C
:100F900021E0821A9108A108B10888EEC80E83E00A
:100FA000D81EE11CF11C81149104A104B10429F79D
:100FB000FF90EF90DF90CF90BF90AF909F908F9079
:100FC0000895CF92DF92EF92FF920F931F93CF93EA
:100FD000DF93CDB7DEB7C054D1400FB6F894DEBF73
:100FE0000FBECDBF2FB7F8948091EB079091EC071F
:100FF000A091ED07B091EE072FBF4091E30850910B
:10100000E4086091E5087091E6088C019D01041BDD
:10101000150B260B370BB901A801403D5740610560
:10102000710590F48091EB08C05CDE4F0FB6F89428
:10103000DEBF0FBECDBFDF91CF911F910F91FF900B
:10104000EF90DF90CF9008958093E3089093E408A9
:10105000A093E508B093E6081092DE081092DD0830
:101060001092DC081092DB081092DA0862E080919E
:10107000DF080E94EA0461E070E080E090E00E94F6
:10108000AF0761E08091DF080E94EA0460E0809190
:10109000DF080E947D048091E0088551823020F5B0
:1010A0008BE291E10197F1F762E08091DF080E9405
:1010B000EA048091EC0890E08230910538F0880FC6
:1010C000991F880F991F05970197F1F7F89480E011
:1010D0000E9406036F3F7F4F8F4F9F4F61F4109226
:1010E000EB08789480E0A0CF64E170E080E090E0CD
:1010F0000E94AF07D9CF81E00E9406036F3F7F4F68
:101100008F4F9F4F61F38E010F5F1F4F6E018FEB6B
:10111000C81A8EEFD80A780180E00E940603F70112
:10112000608371838283938381E00E940603F701C9
:101130006483758386839783F8E0EF0EF11CEC14CB
:10114000FD0451F7789430E020E0F801C080D180B0
:10115000E280F3804481558166817781FFEFCF166D
:10116000DF06EF06FF0631F04F3F8FEF58076807A5
:10117000780719F41092EB08B5CFF90183E0F595E3
:10118000E7958A95E1F7E652F74F8081880FC416FC
:10119000D506E606F70610F180832F5F3F4F085F04
:1011A0001F4F2832310589F64091DE082091DA0878
:1011B0008091DB08280F3327331F8091DC08280F2C
:1011C000311D8091DD08820F932F911D99274817BB
:1011D000190681F681E08093EB0826CF8160DCCF91
:1011E00008959091000289130DC0E4E1F5E0E491C7
:1011F0009FEF90930002E230E1F038F4EE2381F0AB
:10120000E13089F060E00C947D04E43049F110F1A4
:10121000E530C1F7909173009D7F90937300F2CFFA
:1012200010926E00EFCF90916F009D7F90936F00B2
:10123000E9CF909170009D7F9093700091E0909322
:10124000B0009091B100987F94609093B10010929B
:10125000B300D8CF909171009D7F90937100D2CF51
:10126000909172009D7F90937200CCCFAF92BF920D
:10127000CF92DF92EF92FF920F931F93CF93DF9362
:101280006C017B018B01040F151FEB015E01AE1891
:10129000BF08C017D10759F06991D601ED91FC91B3
:1012A0000190F081E02DC6011995892B79F7C501D0
:1012B000DF91CF911F910F91FF90EF90DF90CF9032
:1012C000BF90AF900895FC01538D448D252F30E0E1
:1012D000842F90E0821B930B541710F0CF96089543
:1012E00001970895FC01918D828D981761F0A28D70
:1012F000AE0FBF2FB11D5D968C91928D9F5F9F7336
:10130000928F90E008958FEF9FEF0895FC01918DEB
:10131000828D981731F0828DE80FF11D858D90E058
:1013200008958FEF9FEF0895FC01918D228D892FF5
:1013300090E0805C9F4F821B91098F7399270895DD
:101340008BE198E00E94940921E0892B09F420E0C8
:10135000822F0895FC01A48DA80FB92FB11DA35AA7
:10136000BF4F2C91848D90E001968F739927848FC5
:10137000A689B7892C93A089B1898C9183708064E8
:101380008C93938D848D981306C00288F389E02D89
:1013900080818F7D80830895EF92FF920F931F933A
:1013A000CF93DF93EC0181E0888F9B8D8C8D981318
:1013B0001AC0E889F989808185FF15C09FB7F89424
:1013C000EE89FF896083E889F98980818370806470
:1013D00080839FBF81E090E0DF91CF911F910F91BB
:1013E000FF90EF900895F62E0B8D10E00F5F1F4FCA
:1013F0000F731127E02E8C8D8E110CC00FB607FCD9
:10140000FACFE889F989808185FFF5CFCE010E9466
:10141000AA09F1CFEB8DEC0FFD2FF11DE35AFF4F21
:10142000F0829FB7F8940B8FEA89FB8980818062F4
:10143000CFCF0F931F93CF93DF938C01D0E0C0E009
:10144000F801EC0FFD1F6491662341F08BE198E0F9
:101450000E94CC09892B11F02196F2CFCE01DF91A9
:10146000CF911F910F910895CF93DF93EC01888D59
:101470008823B9F0AA89BB89E889F9898C9185FD0F
:1014800003C0808186FD0DC00FB607FCF7CF8C919D
:1014900085FFF2CF808185FFEDCFCE010E94AA09A2
:1014A000E9CFDF91CF91089580E090E0892B29F07A
:1014B0000E94A00981110E94000080E090E0892B29
:1014C00049F080E090E0892B29F00E940000811112
:1014D0000E94000080E090E0892B49F080E090E0DD
:1014E000892B29F00E94000081110E94000080E0F9
:1014F00090E0892B49F080E090E0892B29F00E9450
:10150000000081110C9400000895CF92DF92EF92B9
:10151000FF920F931F93CF93DF93FC01C48121E0CF
:1015200020935207C0932C071092760710927507EC
:101530008485682B8FE098E00E94BE03D0917507E8
:10154000D13208F092C00E948A076B017C01809121
:10155000C507811165C082E08093C50781E0809353
:10156000C7078FEF8093C4071092E907D093E8076D
:10157000A2E3B7E0E8ECF7E080E0D81385C0109272
:10158000EA078091EA07CC0FC82BC093EA07809145
:10159000C607813009F07CC01092C6070E948A07F6
:1015A0006B017C018091EA078093BB0080917807F2
:1015B00090917907A0917A07B0917B07892B8A2BAC
:1015C0008B2B99F00E948A07009178071091790778
:1015D00020917A0730917B076C197D098E099F094C
:1015E0000617170728073907E0F18091BC0083FD33
:1015F000D9CF85EC8093BC000E948A076B017C01E7
:101600008091C507823009F445C08091C4078F3F9F
:1016100061F18091C407803241F18091C40725C0F7
:101620008091780790917907A0917A07B0917B0714
:10163000892B8A2B8B2B09F48ACF0E948A07009171
:1016400078071091790720917A0730917B076C1900
:101650007D098E099F09061717072807390708F023
:1016600076CF809177070E94C90410927607109276
:10167000750710925207DF91CF911F910F91FF9044
:10168000EF90DF90CF9008959D9191938F5F75CFEC
:1016900085EEB0CF8091780790917907A0917A0775
:1016A000B0917B07892B8A2B8B2B09F4A9CF0E9441
:1016B0008A07009178071091790720917A07309175
:1016C0007B076C197D098E099F09061717072807E4
:1016D000390708F095CFC5CF90E080E008950F93CB
:1016E0001F93CF938C01C62F0E94850A6C2F6460D4
:1016F000C8010E94850A6C2F6B7FC8010E94850A71
:1017000083EC90E00197F1F7CF911F910F9108952D
:101710000F931F93CF93DF938C01D62FC42F607F3D
:10172000642B0E946F0B80E1D89FB00111246C2BB9
:10173000C801DF91CF911F910F910C946F0BCF9344
:10174000DF9300D000D01F921F92CDB7DEB798E094
:10175000E7E0F2E0DE01119601900D929A95E1F733
:101760009091D508981708F48FEF90E0880F991F93
:1017700021E030E02C0F3D1F820F931FFC016081A0
:10178000606840E08DEC98E028960FB6F894DEBFD4
:101790000FBECDBFDF91CF910C94880B40E061E08C
:1017A0008DEC98E00E94880B8BE39FE10197F1F7A5
:1017B0008091D608882319F080E00C949F0B08953F
:1017C00041E00E94880B81E090E0089542E050E003
:1017D0006BE472E08BE198E00C943609CF93DF93D1
:1017E0000E94190AEC010E94E60B8C0F9D1FDF91ED
:1017F000CF9108950F931F93CF93DF93EC018B014B
:101800008AE792E00E94190AFE0101900020E9F7A0
:101810003197AF014C1B5D0BBE018BE198E00E943C
:1018200036090E94E60B82E792E00E94190AF8014D
:1018300044815581608171818BE198E00E94360975
:101840000E94E60BDF91CF911F910F910C94E60B54
:1018500085ED8093BC008091780790917907A091E5
:101860007A07B0917B070796A11DB11D23E0B695BD
:10187000A795979587952A95D1F72091BC0024FDCF
:1018800003C01092C50708954091780750917907D9
:1018900060917A0770917B07452B462B472B69F3A4
:1018A0000097A105B10541F02AE22A95F1F700C0A1
:1018B0000197A109B109E1CF809177070C94C90480
:1018C0000F931F93CF93DF93EC0188819981009749
:1018D00059F02A813B812617370730F081E0DF91EC
:1018E000CF911F910F9108958B016F5F7F4F0E94E1
:1018F0004220009759F0998388831B830A832C81A7
:101900003D81232B59F7FC011082E8CF80E0E7CF1F
:10191000EF92FF920F931F93CF93DF9361157105A1
:1019200041F480E0DF91CF911F910F91FF90EF90F4
:10193000089541155105B1F07B01EC010C811D8129
:10194000040F151FB8010E94600C882351F32881F1
:1019500039818C819D81B701820F931F0E943521AF
:101960001D830C8381E0DECFCF93DF93EC01888170
:101970009981009711F00E94B91F198218821D8267
:101980001C821B821A82DF91CF910895CF93DF933F
:10199000EC01FB0101900020E9F73197AF01461BF4
:1019A000570B0E94880C811103C0CE010E94B40C19
:1019B000CE01DF91CF910895CF93DF93EC01FB012E
:1019C00044815581608171810E94880C811103C01E
:1019D000CE010E94B40CCE01DF91CF910895EF9219
:1019E000FF920F931F93CF93DF93EC017B018A014A
:1019F000BA010E94600C81110BC0CE010E94B40C90
:101A0000CE01DF91CF911F910F91FF90EF9008953C
:101A10001D830C83B701888199810E943521F0CF05
:101A2000FB0101900020E9F73197AF01461B570BEE
:101A30000C94EF0C0F931F93CF93DF93CDB7DEB7CA
:101A400062970FB6F894DEBF0FBECDBF8C01CB01FD
:101A5000F8011182108213821282158214824AE0E8
:101A6000BE016F5F7F4F0E94481ABE016F5F7F4FBC
:101A7000C8010E94100D62960FB6F894DEBF0FBE2B
:101A8000CDBFDF91CF911F910F910895EF92FF92FB
:101A90000F931F93CF93DF93CDB7DEB7A1970FB608
:101AA000F894DEBF0FBECDBF7C01CB01BA01F701B8
:101AB0001182108213821282158214828E010F5FAE
:101AC0001F4F21E043E00E942A1A009789F0BC01D1
:101AD000C7010E94100DA1960FB6F894DEBF0FBE8D
:101AE000CDBFDF91CF911F910F91FF90EF9008959F
:101AF000C7010E94B40CEFCFFB01DC0111961C92D0
:101B00001E9213961C921E92129715961C921E926C
:101B100014978617970749F06081718161157105E7
:101B200021F0448155810C94EF0C0895FC01118241
:101B3000108213821282158214826115710551F090
:101B4000FB0101900020E9F73197AF01461B570BCD
:101B50000C94EF0C0895DF92EF92FF920F931F9376
:101B6000CF93DF938C017B016DE472E00E94960DB0
:101B7000D7011496CD91DC912097D9F0C031D105D1
:101B800010F0C0E1D0E0D701ED91FC911197EC0F7E
:101B9000FD1FD08010826D917C91C8016115710587
:101BA00089F00E94100DF70180819181C80FD91F23
:101BB000D882C801DF91CF911F910F91FF90EF90D4
:101BC000DF9008950E94B40CEECFFC0180819181DA
:101BD000009711F00C94B91F0895EF92FF920F93A4
:101BE0001F93CF93DF9300D000D0CDB7DEB77C0139
:101BF0008B010E94CE0B80E00E949F0BB701CE01AB
:101C000001960E94AB0D4D815E8169817A818DECD8
:101C100098E00E943609CE0101960E94E50D81E010
:101C20000E949F0BB801CE0101960E94AB0D4D8121
:101C30005E8169817A818DEC98E00E943609CE013F
:101C400001960E94E50D26960FB6F894DEBF0FBEF2
:101C5000CDBFDF91CF911F910F91FF90EF9008952D
:101C6000CF92DF92FF920F931F93CF93DF93CDB765
:101C7000DEB76E970FB6F894DEBF0FBECDBFF42E61
:101C80006901FB014083642F0E947D04B801CE01ED
:101C900007960E94960D6EE472E0FF2011F06BEB48
:101CA00073E0CE010D960E94960DB601CE014396CB
:101CB0000E94960D62E572E0CE0149960E94960D53
:101CC000BE016D5E7F4FCE0149960E94DC0C6BE633
:101CD00072E00E94C60CBE01635F7F4F0E94DC0C65
:101CE00067E772E00E94C60CBE01695F7F4F0E94E9
:101CF000DC0C6CE874E00E94C60CBC01CE010196BD
:101D00000E947C0DBE016F5F7F4F84E892E00E94CD
:101D1000FA0BCE0101960E94E50DCE0149960E9474
:101D2000E50DCE0143960E94E50DCE010D960E9471
:101D3000E50DCE0107960E94E50D6E960FB6F8945C
:101D4000DEBF0FBECDBFDF91CF911F910F91FF90EE
:101D5000DF90CF900895CF92DF92EF92FF920F9392
:101D60001F93CF93DF93CDB7DEB768970FB6F89484
:101D7000DEBF0FBECDBF8C017B01D090BC08DD2043
:101D8000B1F1BC01CE0101960E94960D2091C108CF
:101D90003091C2088D819E812817390709F58091FD
:101DA000BD089091BE0869817A81009751F0611554
:101DB000710509F0FEC0232BA1F0FC01808190E0A9
:101DC0000BC06115710569F0232B59F0FB0180816F
:101DD00090E0919581959109DD24D394892B09F0A8
:101DE000D12CCE0101960E94E50DD110D3C081E027
:101DF0008093BC08B801CE0101960E94960D809197
:101E0000BD089091BE08009709F4D8C069817A8115
:101E10006115710509F4D0C04091BF085091C00808
:101E20002D813E814217530708F4C6C00E94352118
:101E30008D819E819093C2088093C1081E821D826D
:101E4000CE0101960E94E50D61E087E00E947D04CD
:101E500061E084E00E947D0483E0C82ED12C4AEF2B
:101E600050E060E070E088EE93E00E9426056CE2AE
:101E700071E080E090E00E94AF0746E950E060E04A
:101E800070E08CED95E00E9426056AEF70E080E03E
:101E900090E00E94AF07F1E0CF1AD10801F788E087
:101EA0000E94F108B701CE010D960E941A0DB801EB
:101EB000CE0107960E94960D65E972E0CE0101966B
:101EC0000E94960DBE01695F7F4FCE0101960E9470
:101ED000DC0C6CEA72E00E94C60CBE01635F7F4FAF
:101EE0000E94DC0C67EB72E00E94C60CBC01CE01C4
:101EF00043960E947C0DBE016D5E7F4F88EF92E09D
:101F00000E94FA0BCE0143960E94E50DCE01019688
:101F10000E94E50DCE0107960E94E50DCE010D96BB
:101F20000E94E50D68E073E0CE0143960E94960D95
:101F300066E173E0CE0101960E94960DBE016F5FCF
:101F40007F4FCE0107960E947C0DB801CE01079607
:101F50000E94C60C6AE173E00E94C60CBC01CE016F
:101F60000D960E947C0DBE016D5E7F4FCE010D96D9
:101F70000E94ED0DCE010D960E94E50DCE01079653
:101F80000E94E50DCE0101960E94E50DCE0143961B
:101F90000E94E50D68960FB6F894DEBF0FBECDBF68
:101FA000DF91CF911F910F91FF90EF90DF90CF9035
:101FB00008950E942C2110CF0E94B91F89819A8117
:101FC0009093BE088093BD088B819C819093C0083C
:101FD0008093BF088D819E819093C2088093C10831
:101FE0001A8219821C821B8229CF1F920F920FB670
:101FF0000F9211240BB60F922F933F934F935F9341
:102000006F937F938F939F93AF93BF93EF93FF93C0
:102010008091B900887F803609F44DC008F040C037
:10202000883209F4A9C028F5803109F49DC0C8F4AC
:10203000882309F4FBC0883009F496C0FF91EF9122
:10204000BF91AF919F918F917F916F915F914F91D0
:102050003F912F910F900BBE0F900FBE0F901F90CE
:102060001895883109F488C0803241F78093C407FD
:1020700014C0803409F49DC040F48033B9F3883330
:10208000E9F68093C40785ECB0C0803509F485C0BB
:10209000883509F496C0883489F60E94280CCECF82
:1020A000883909F48CC038F5883729F050F488361F
:1020B00011F0803719F683E08093C5071092C307AB
:1020C00057C0883809F47BC0803919F0803809F08E
:1020D000B5CF8091C307803208F071C0E091C3078B
:1020E00081E08E0F8093C3078091BB00F0E0ED5537
:1020F000F84F80833DC0803B39F0E0F4803A09F42A
:1021000079C0883A09F09ACF84E08093C50710928D
:10211000A00710929F07E0919D07F0919E071995E7
:1021200080919F0781110FC081E080939F071092DB
:102130007D0709C0803C09F4A6CF883C09F4A3CFF1
:10214000883B09F07BCFE091A00781E08E0F809360
:10215000A007F0E0E358F84F80818093BB00909196
:10216000A00780919F0729C08091EA078093BB0058
:1021700085EC8093BC0062CF9091E9078091E807DD
:10218000981758F5E091E90781E08E0F8093E907F1
:10219000F0E0E853F84F8081E9CFE091E90781E072
:1021A0008E0F8093E9078091BB00F0E0E853F84F71
:1021B00080839091E9078091E8079817C8F285E835
:1021C000D8CFE091E90781E08E0F8093E9078091F5
:1021D000BB00F0E0E853F84F80838091C70781117E
:1021E0005CCF81E08093C60784EA8093BC001092A4
:1021F000C50724CF85EC8093BC001092C507809161
:10220000C307803230F4E091C307F0E0ED55F84F9A
:1022100010826091C30770E0E091A107F091A207DE
:1022200083EA97E019951092C30708CF1092C4076C
:1022300034CF1F920F920FB60F9211242F933F931A
:102240008F939F93AF93BF938091EB079091EC078F
:10225000A091ED07B091EE0730912D0723E0230FF9
:102260002D3758F50196A11DB11D20932D078093A0
:10227000EB079093EC07A093ED07B093EE078091E6
:102280002E0790912F07A0913007B091310701964A
:10229000A11DB11D80932E0790932F07A0933007A7
:1022A000B0933107BF91AF919F918F913F912F9143
:1022B0000F900FBE0F901F90189526E8230F0296DF
:1022C000A11DB11DD2CF1F920F920FB60F921124F4
:1022D0000BB60F922F933F934F935F936F937F9320
:1022E0008F939F93AF93BF93EF93FF9380910308D6
:1022F00090910408A0910508B0910608892B8A2BBB
:102300008B2BE1F19091F207E091F307F091F40744
:102310008081892780838091030890910408A0918F
:102320000508B0910608181619061A061B069CF433
:102330008091030890910408A0910508B0910608C7
:102340000197A109B1098093030890930408A09311
:102350000508B0930608FF91EF91BF91AF919F914F
:102360008F917F916F915F914F913F912F910F903E
:102370000BBE0F900FBE0F901F901895809100021A
:102380000E94F108E8CF1F920F920FB60F9211240E
:102390000BB60F922F933F934F935F936F937F935F
:1023A0008F939F93AF93BF93EF93FF938BE198E04D
:1023B0000E94AA09FF91EF91BF91AF919F918F91D8
:1023C0007F916F915F914F913F912F910F900BBE35
:1023D0000F900FBE0F901F9018951F920F920FB67F
:1023E0000F9211240BB60F922F938F939F93EF931D
:1023F000FF93E0912B08F0912C088081E091310847
:10240000F091320882FD1DC09081809134088F5F69
:102410008F7320913508821741F0E0913408F0E085
:10242000E55EF74F958F80933408FF91EF919F9170
:102430008F912F910F900BBE0F900FBE0F901F909A
:1024400018958081F2CFCF93DF93EFE0F8E013820D
:10245000128288EE93E0A0E0B0E084839583A683A7
:10246000B7832FE132E031832083EBE1F8E0138280
:10247000128284839583A683B78381E392E091835C
:10248000808385EC90E09587848784EC90E0978743
:10249000868780EC90E0918B808B81EC90E0938B31
:1024A000828B82EC90E0958B848B86EC90E0978B0E
:1024B000868B118E128E138E148EAAEDB8E083E0F7
:1024C00015968C93159786E116968C931697EEE5E4
:1024D000F5E0E4911796EC931797E8E1F5E0E491C5
:1024E0001896EC93189740E85EE360E070E01D9664
:1024F0004D935D936D937C935097EDECF8E01382D0
:10250000128283E492E091838083118687E2848340
:1025100080E1828782E083871486C8EBD8E0188246
:1025200019821A8281E08B831C826DE472E08DEB4C
:1025300098E00E94960D1B861C861D861E861F86AF
:10254000188A198A1A8A1C8A1B8ADF91CF910895EA
:10255000CF93DF93CDB7DEB7C556D1090FB6F89448
:10256000DEBF0FBECDBF789484B5826084BD84B5D4
:10257000816084BD85B5826085BD85B5816085BD7E
:1025800080916E00816080936E0010928100809136
:1025900081008260809381008091810081608093BE
:1025A0008100809180008160809380008091B100E3
:1025B00084608093B1008091B00081608093B0000E
:1025C0008091910082608093910080919100816060
:1025D0008093910080919000816080939000809121
:1025E000A10082608093A1008091A100816080930E
:1025F000A1008091A00081608093A00080912101C2
:10260000826080932101809121018160809321016A
:102610008091200181608093200180917A00846004
:1026200080937A0080917A00826080937A00809112
:102630007A00816080937A0080917A00806880932C
:102640007A001092C100E0912B08F0912C0882E0F2
:102650008083E0912708F09128081082E0912908F2
:10266000F0912A0880E1808310923308E0912F08CE
:10267000F091300886E08083E0912D08F0912E08DB
:10268000808180618083E0912D08F0912E08808107
:1026900088608083E0912D08F0912E088081806809
:1026A0008083E0912D08F0912E0880818F7D8083BA
:1026B00060E082E00E94EA0462E086E10E94EA04AF
:1026C00062E087E10E94EA0461E084E00E94EA049B
:1026D00061E085E00E94EA0461E086E00E94EA048D
:1026E00061E087E00E94EA0461E088E00E94EA0479
:1026F00060E084E00E947D0460E085E00E947D044B
:1027000061E086E00E947D0460E087E00E947D0435
:1027100062E08091DF080E94EA042FB7F89480916C
:10272000EB079091EC07A091ED07B091EE072FBF5A
:10273000805D9740A109B1098093E3089093E40874
:10274000A093E508B093E60887E38093EC08109225
:1027500074071092730710927607109275070E9403
:10276000AB0485E693E090939E0780939D0786E6F1
:1027700093E09093A2078093A1071092D2088091D2
:10278000D808823018F098E09093D2088093D5084A
:1027900062E370E080E090E00E94AF076091D908AA
:1027A0008DEC98E00E94850A68EE73E080E090E08E
:1027B0000E94AF0760E38DEC98E00E946F0B0BE482
:1027C00016E4C8010197F1F760E38DEC98E00E94F0
:1027D0006F0BC8010197F1F760E38DEC98E00E9460
:1027E0006F0B83E592E00197F1F760E28DEC98E0E2
:1027F0000E946F0B6091D208606240E08DEC98E01F
:102800000E94880B84E08093D30840E06CE08DEC5C
:1028100098E00E94880B0E94CE0B82E08093D4083F
:1028200040E066E08DEC98E00E94880B40E062E0BA
:102830008DEC98E00E94880B8BE39FE10197F1F704
:1028400088E08093D90860E08DEC98E00E94850ACA
:1028500063E773E08E010F5F1F4FC8010E94960D62
:102860005E0122E2A20EB11C63E873E0C5010E9482
:10287000960DB801C5010E94ED0DC5010E94E50D40
:10288000C8010E94E50D60EB74E080E090E00E94DA
:10289000AF0760E973E0C8010E94960D6FE973E02D
:1028A000C5010E94960DB801C5010E94ED0DC5013C
:1028B0000E94E50DC8010E94E50D60EB74E080E028
:1028C00090E00E94AF076FEA73E0C8010E94960D86
:1028D0006EEB73E0C5010E94960DB801C5010E9420
:1028E000ED0DC5010E94E50DC8010E94E50D68EEE1
:1028F00073E080E090E00E94AF076CEC73E0C801E9
:102900000E94960DB8018AE494E00E94FA0BC80177
:102910000E94E50D8AEF93E00E94EE0B86ED93E0B6
:102920000E94EE0B83EB93E00E94EE0B8EE893E0A7
:102930000E94EE0B8CE693E00E94EE0B8BE493E09A
:102940000E94EE0B89E293E00E94EE0B83E093E09D
:102950000E94EE0B86E992E00E94EE0B6801FA2CD1
:10296000EB2C1E0133E3230E311CAE014A5B5F4F9B
:1029700064965FAF4EAF64978FB7F8948090EB0783
:102980009090EC07A090ED07B090EE078FBF82E02B
:102990000E945404892BE1F08091B808811110C085
:1029A00081E08093B80868E574E0C6010E94960D46
:1029B000B6018FE894E00E94FA0BC6010E94E50D73
:1029C0008092C3089092C408A092C508B092C6082D
:1029D0008091B808882321F18091C3089091C408A0
:1029E000A091C508B091C608A5019401281B390B18
:1029F0004A0B5B0BDA01C90181329E44A105B10586
:102A000078F01092B80860EA74E0C6010E94960D52
:102A1000B6018FE894E00E94FA0BC6010E94E50D12
:102A200086E10E945404892B09F0D8C062E370E06B
:102A300080E090E00E94AF0786E10E945404892B59
:102A400009F0CCC08091CB089091CC0863E070E095
:102A50000E946F1E8C01000F111FF801EB5EFD4FED
:102A600060817181CE01805C9F4F0E94960DF801BC
:102A7000E15FFD4F60817181CE01CA960E94960D83
:102A80008091CB089091CC0801969093CC088093CC
:102A9000CB081092BB0860E086E00E947D0440E510
:102AA00050E060E070E080EB94E00E9426056EE666
:102AB00070E080E090E00E94AF0740E550E060E009
:102AC00070E080E496E00E9426056EE670E080E00B
:102AD00090E00E94AF0788E00E94F108BE01665CAA
:102AE0007F4FC6010E947C0D6DEE74E08F2D9E2DF0
:102AF0000E94960DB6018F2D9E2D0E94ED0D8F2DFB
:102B00009E2D0E94E50DC6010E94E50D2FB7F89499
:102B10006091EB077091EC078091ED079091EE07C3
:102B20002FBF1BA21AA21DA21CA21FA21EA22AE036
:102B3000A6010E94531AB6018F2D9E2D0E94100DE2
:102B400066EF74E0C1010E94960DBE01605C7F4F8C
:102B5000C1010E94DC0C6DE075E00E94C60CBE0154
:102B6000665C7F4F0E94DC0C6BE175E00E94C60C36
:102B70006F2D7E2D0E94DC0C6DE874E00E94C60C67
:102B8000BC01C6010E947C0DB6018DE395E00E9458
:102B9000FA0BC6010E94E50DC1010E94E50D8F2DC3
:102BA0009E2D0E94E50D60ED77E080E090E00E94B0
:102BB000AF0781E08093BB0861E086E00E947D045E
:102BC000CE01CA960E94E50DCE01805C9F4F0E9407
:102BD000E50D86E10E945404892BD9F387E10E9418
:102BE0005404892B09F066C062E370E080E090E055
:102BF0000E94AF0787E10E945404892B09F05AC054
:102C000044EF51E060E070E080E991E00E94260529
:102C100068E572E080E090E00E94AF0744EF51E089
:102C200060E070E080E991E00E94260568E572E0CE
:102C300080E090E00E94AF0788E00E94F10861E028
:102C400087E00E947D046DE475E0C6010E94960D48
:102C50006BE575E08F2D9E2D0E94960DB6018F2D90
:102C60009E2D0E94ED0D8F2D9E2D0E94E50DC6011B
:102C70000E94E50D69E675E0C6010E94960DB60159
:102C800084EC95E00E94FA0BC6010E94E50D64EC0D
:102C900079E080E090E00E94AF078091BC0881114C
:102CA00004C060E087E00E947D0487E10E94540434
:102CB000892BD9F38091C7089091C808A091C908C1
:102CC000B091CA08A5019401281B390B4A0B5B0B74
:102CD000DA01C901803D9740A105B10508F4EFC0B4
:102CE0008092C7089092C808A092C908B092CA08FA
:102CF0000E94E107882341F08091E0088C3009F4BC
:102D00006BC048F48B3001F1812C912C80ECA82E03
:102D10008FE7B82E43C085518230B0F71091DC08A0
:102D2000612F70E0762F662766277F778091DD0818
:102D3000682B90E080E00E94F51C2DEC3CEC4CEC04
:102D40005DE30E94561D64C06091DC0870E090E075
:102D500080E00E94F51C4B015C011091DD0817FF1B
:102D60000AC0AC019B0160E070E080E89FEB0E942C
:102D7000A61E4B015C011F70612F70E090E080E0A7
:102D80000E94F71C2DEC3CEC4CEC5DE30E94561DC0
:102D9000A50194010E94A71E4B015C010E94E1075E
:102DA000882309F488C08091E0088B3030F08D30A2
:102DB000C0F18551823008F485C069961FAE6997CD
:102DC0006A961FAE6A9740EC6B964FAF6B975FE7C2
:102DD0006C965FAF6C974DC01091DC08612F70E06E
:102DE00090E080E00E94F51C4B015C016091DD08E1
:102DF0006F7070E090E080E00E94F71C2DEC3CECDE
:102E00004CEC5DE30E94561DA50194010E94A71E93
:102E10004B015C0117FFC2CFB7FAB094B7F8B0947A
:102E2000BDCF6091DB0870E090E080E00E94F71C6D
:102E30002DEC3CEC4CEC5DE30E94561D2B013C015B
:102E40006091DA0870E090E080E00E94F71C9B013E
:102E5000AC01C301B2010E94A71E69966FAF6997CA
:102E60006A967FAF6A976B968FAF6B976C969FAFA2
:102E70006C97A5019401C501B4010E94181F81112E
:102E80001AC069967FAD69976A966FAD6A976B961F
:102E90009FAD6B976C968FAD6C97272F362F492F70
:102EA000582FDB01FC016B2F7A2F8F2F9E2F0E9452
:102EB000181F8823C9F087E694E00E94EE0B0E9459
:102EC000540A5ACD6091DA087091DB08762767279B
:102ED000762790E080E00E94F51C2DEC3CEC4CEC59
:102EE0005DE30E94561DB9CF86E30E94730720E47C
:102EF00036E0DC010E948B1E2FEF33E040E050E013
:102F00000E94141EDA01C90180579E4FAF4FBF4F78
:102F100068968CAF9DAFAEAFBFAF689766966EAC4C
:102F20007FAC669787E30E94730724E630E0DC01FC
:102F30000E948B1E2FEF33E040E050E00E94141EF1
:102F4000A0962CAF3DAF4EAF5FAFA0976E96AEADE3
:102F5000BFAD6E97A696BFAFAEAFA69788E30E94AF
:102F6000730724E630E0DC010E948B1E2FEF33E074
:102F700040E050E00E94141EA4962CAF3DAF4EAF2F
:102F80005FAFA497A2964EAC5FACA2978091B808B1
:102F90000EE113E0811102C003E213E0A2966EADD0
:102FA0007FADA297C6010E941A0D6E966EAD7FADE1
:102FB0006E978F2D9E2D0E941A0D66966EAD7FAD79
:102FC0006697C1010E941A0D69963FAD69976A968E
:102FD0002FAD6A976B969FAD6B976C968FAD6C9784
:102FE000432F522F692F782FCE01CA960E94460D8B
:102FF000B501A401CE01805C9F4F0E94460D63ED98
:1030000075E0CE018A5B9F4F0E94960DBE01605C09
:103010007F4FCE018A5B9F4F0E94DC0C69EE75E00A
:103020000E94C60CBE01665C7F4F0E94DC0C61EF03
:1030300075E00E94C60CB1010E94DC0C69EF75E0DE
:103040000E94C60C6F2D7E2D0E94DC0C63E076E0A2
:103050000E94C60CB6010E94DC0C6DE076E00E9476
:10306000C60CB8010E94C60C6DE874E00E94C60C44
:10307000BC01CE01845B9F4F0E947C0DCE018A5B18
:103080009F4F0E94E50DCE01805C9F4F0E94E50D91
:10309000CE01CA960E94E50DC1010E94E50D8F2D5B
:1030A0009E2D0E94E50DC6010E94E50DBE01645BE8
:1030B0007F4FC6010E947C0DB6018AE196E00E9416
:1030C000FA0BC6010E94E50DA6962EAD3FADA69760
:1030D0006E966EAD7FAD6E978DE296E02134310530
:1030E0005CF431E4431651040CF4B0C0A2966EAD0A
:1030F0007FADA29782E396E00E94AB0E8091BC0860
:1031000081119EC0810121E044E0C501B4010E940B
:103110002A1A6C96AFAD6C97AF936B96BFAD6B9759
:10312000BF936A962FAD6A972F9369963FAD6997C3
:103130003F933F922F924CEC56E05F934F931F9238
:1031400081E18F93EF92FF920E943C210FB6F89499
:10315000DEBF0FBECDBF8091BB0867E675E0811171
:1031600002C06BE673E08091BA0840E552E081113D
:1031700002C04DE653E08091B9082FE633E081119B
:1031800002C02DE633E08091B808882309F441C1DC
:1031900081E793E07F936F935F934F933F932F93D8
:1031A0009F938F932BED36E03F932F931F9285E0F3
:1031B0008F9364965FAD64975F9363968FAD6397CB
:1031C0008F930E943C2164969FAD64979F93639672
:1031D000AFAD6397AF936696BFAD6697BF936596A5
:1031E0002FAD65972F9344EE56E05F934F931F9258
:1031F00081E18F93DF92CF920E943C21B601CE01F4
:10320000CA960E94960D6F2D7E2DCE01805C9F4F39
:103210000E94960DBE01665C7F4FCE01805C9F4F81
:103220000E94ED0DCE01805C9F4F0E94E50DCE0106
:10323000CA960E94E50D0FB6F894DEBF0FBECDBF53
:10324000CE01845B9F4F0E94E50D39CE8091BC0872
:103250008823E1F01092BC086DE472E08DEB98E0F9
:103260000E94100D60E087E00E947D0488E00E94CB
:10327000F10868E376E0C6010E94960DB60188EF7A
:1032800092E00E94FA0BC6010E94E50D8091BC08F5
:103290008111D6CF4091B80809E213E0411102C074
:1032A0000CE313E08091B908481741F02AE636E0B4
:1032B00069EB78E084E090E00E94300E8091B808DD
:1032C000882309F465C020E030E048ED51E4C501F1
:1032D000B4010E94131F20E030E048EC51E487FF66
:1032E000A8C0C501B4010E94F01C87FF95C040E250
:1032F000641643E074060CF44BC007E413E08091BD
:10330000BA0821E736E041E0882309F44BC080EB9E
:10331000681684E078060CF44CC066966EAD7FADFE
:1033200066978F2D9E2D0E941A0D6EE776E0C601DE
:103330000E94960D6F2D7E2DC6010E94DC0C63E964
:1033400076E00E94C60CBC01C1010E947C0DB10157
:103350008BEA96E00E94FA0BC1010E94E50DC601BE
:103360000E94E50D8F2D9E2D0E94E50D48EC50E04A
:1033700060E070E080E293E00E942605BFCE50E25C
:10338000651653E075060CF0B8CF07E513E0B7CF2C
:103390008091BA08882309F4BACF05E716E021E73F
:1033A00036E040E06AEB78E085E090E00E94300E85
:1033B000AECF90E2691693E079060CF49FCE669644
:1033C0006EAD7FAD66978F2D9E2D0E941A0D6EE714
:1033D00076E0C6010E94960D6F2D7E2DC6010E94DB
:1033E000DC0C65EB76E00E94C60CBC01C1010E94BA
:1033F0007C0DB1018BEA96E00E94FA0BC1010E949C
:10340000E50DC6010E94E50D8F2D9E2D0E94E50D54
:1034100075CE8DE693E0BECEB0E26B16B3E07B06D0
:103420000CF06BCF30EB631634E073060CF466CE11
:1034300074CFC501B4010E94F01C87FFA0CF20E229
:10344000621623E072060CF058CF9FCF8DEB98E008
:103450000C94E50DEF920F931F93CF93DF93E80148
:1034600034E047FD34E1042E000C550B57FF03C038
:10347000519541955109E32E022F242FAE010E9450
:103480008F1ACE01DF91CF911F910F91EF90089588
:10349000BB274A3031F4992322F4BDE290958195FF
:1034A0009F4F0C94761ABB27FA01A62F621771055D
:1034B00081059105330B30FB66F0AA27660F771F55
:1034C000881F991FAA1FA21710F0A21B63953850DE
:1034D000A9F7A05DAA3308F0A95DA19336F7B11151
:1034E000B1931082CA010C94E01CBB27FB01552745
:1034F000AA27880F991FAA1FA41710F0A41B839551
:103500005051B9F7A05DAA3308F0A95DA1930097C7
:1035100079F7B111B1931192CB010C94E01C8F9209
:103520009F92AF92BF92CF92DF92EF92FF920F9352
:103530001F93CF93DF9300D000D000D0CDB7DEB77C
:103540006A01F22EB02E102FFBE3AF2EA01608F466
:103550001BE31F5F012F27E0AE014F5F5F4F0E940B
:10356000081CBC018981982F9970913009F44EC0D4
:103570009BE2E1FC04C09E2D9170E0FC49C05E2DF1
:103580005071E82FE87083FF55C084E0911101C0AD
:1035900083E0EF2DE81B8F1508F0E0E0D6018E2FB9
:1035A00020E25523C9F1992329F0D6019C93C60145
:1035B00001966C0196012D5F3F4FE2FE33C08EE411
:1035C000D6018C9391E411969C93119712968C934B
:1035D000D9018E2F90E281112AC0E20FF32FF11D45
:1035E00010828EEF9FEF29960FB6F894DEBF0FBEC4
:1035F000CDBFDF91CF911F910F91FF90EF90DF90A2
:10360000CF90BF90AF909F908F9008959DE2B7CFDD
:1036100090E2B5CF2D9381508111FCCFCE0ED11CFD
:10362000E0E0C1CF8EE6D6018C9391E6CCCF9D939E
:103630008150D1CF482F447082FF3DC084E091116A
:1036400001C083E08F1510F4EF2DE81BD6018E2FFB
:1036500020E2552309F1992329F0D6019C93C60154
:1036600001966C0196012D5F3F4FE2FE1BC089E47D
:10367000D6018C938EE411968C93119786E4129662
:103680008C93D9018E2F90E2882309F4A6CF9D93C5
:103690008150FACF2D9381508111FCCFCE0ED11CD9
:1036A000E0E0D9CF89E6D6018C938EE611968C9313
:1036B000119786E6E4CF9B0177FF02C030E020E05F
:1036C000A1E0B0E0911102C0B0E0A0E0F9013196B4
:1036D000AE0FBF1F8B2C912CBB2009F461C054018D
:1036E000EFEFAE1ABE0AAA0DBB1DFA161B0619F0A3
:1036F00014F04F2D4A1B511188C0E3FC59C07601CC
:10370000A42FB0E2A1114FC0C40ED11C992309F41B
:103710005BC040E0D6011196F60190836D01552300
:1037200009F448C0012F060F9A81582F507184FF69
:1037300003C0913309F4015010160CF047C0093052
:1037400008F008E0EEE2FE2E5B01A01AB108850148
:103750009194819491082F3F320729F4D601FC926D
:10376000F60131966F016217730794F10217130780
:103770007CF5DB01A21BB30BAA24A394B12CAC0EE5
:10378000BD1EAA0DBB1D11968C9121503109D60189
:10379000119628153905F4F0F60180836D01DBCF11
:1037A000B12CA12CA0CFF701B1937F01A150AACFDA
:1037B0009111B0CFD601942F50E302C05D93915088
:1037C0009111FCCFC40ED11C40E0ACCF01E0BACFC8
:1037D00080E3DBCF6217730731F4963388F49533B7
:1037E00011F4552369F0F6018083FD01842F90E2E6
:1037F000811108C0A40FB11D1C9290E080E0F3CEAF
:1038000081E3F1CF91938150F3CF911183CF8ACF90
:10381000283008F027E03327DA01990F311D87FDA2
:10382000916000966105710539F432602E5F3D9319
:1038300030E32A95E1F708959F3F30F08038710515
:10384000610509F03C5F3C5F3D93913008F0806872
:10385000911DDF93CF931F930F93FF92EF92192F38
:10386000987F9695E92F96959695E90FFF27EE524A
:10387000FE4F99273327EE24FF24A701E701059087
:103880000894079428F4360FE71EF81E491F511DAF
:10389000660F771F881F991F0694A1F7059007945C
:1038A00028F4E70EF81E491F561FC11D770F881F09
:1038B000991F661F0694A1F70590079428F4F80E47
:1038C000491F561FC71FD11D880F991F661F771FDD
:1038D0000694A1F70590079420F4490F561FC71FBF
:1038E000D81F990F661F771F881F0694A9F7849128
:1038F0001095177041F0D695C79557954795F79451
:10390000E7941A95C1F7E8E7F1E0689415901591EE
:1039100035916591959105907FE27395E118F10AD3
:10392000430B560BC90BD009C0F7E10CF11E431F26
:10393000561FC91FD01D7EF4703311F48A95E6CF4F
:10394000E894015030F0080F0AF40027021708F439
:10395000202F2395022F7A3328F079E37D932A953F
:10396000E9F710C07D932A9589F606949795679597
:10397000379517951794E118F10A430B560BC90BAD
:10398000D00998F023957E9173957A3308F070E30F
:103990007C932013B8F77E9170617D9330F083950E
:1039A00071E37D9370E32A95E1F71124EF90FF9086
:1039B0000F911F91CF91DF91992787FD90950895E1
:1039C000DC01FC01672F71917723E1F7329704C086
:1039D0007C916D9370836291AE17BF07C8F3089511
:1039E0000E94321D08F481E00895E89409C097FB15
:1039F0003EF490958095709561957F4F8F4F9F4FC6
:103A00009923A9F0F92F96E9BB279395F695879509
:103A100077956795B795F111F8CFFAF4BB0F11F4CC
:103A200060FF1BC06F5F7F4F8F4F9F4F16C0882373
:103A300011F096E911C0772321F09EE8872F762FA9
:103A400005C0662371F096E8862F70E060E02AF0EA
:103A50009A95660F771F881FDAF7880F96958795D6
:103A600097F90895990F0008550FAA0BE0E8FEEFAB
:103A700016161706E807F907C0F012161306E40732
:103A8000F50798F0621B730B840B950B39F40A262B
:103A900061F0232B242B252B21F408950A2609F409
:103AA000A140A6958FEF811D811D08950E94691D7B
:103AB0000C94DA1D0E94CC1D38F00E94D31D20F01A
:103AC000952311F00C94C31D0C94C91D11240C9462
:103AD0000E1E0E94EB1D70F3959FC1F3950F50E0F1
:103AE000551F629FF001729FBB27F00DB11D639FB0
:103AF000AA27F00DB11DAA1F649F6627B00DA11D56
:103B0000661F829F2227B00DA11D621F739FB00DFB
:103B1000A11D621F839FA00D611D221F749F33276B
:103B2000A00D611D231F849F600D211D822F762F04
:103B30006A2F11249F5750409AF0F1F088234AF0E1
:103B4000EE0FFF1FBB1F661F771F881F915050404D
:103B5000A9F79E3F510580F00C94C31D0C940E1ED6
:103B60005F3FE4F3983ED4F3869577956795B795D4
:103B7000F795E7959F5FC1F7FE2B880F911D9695EE
:103B8000879597F9089597F99F6780E870E060E05E
:103B900008959FEF80EC089500240A9416161706E6
:103BA00018060906089500240A941216130614062E
:103BB00005060895092E0394000C11F4882352F091
:103BC000BB0F40F4BF2B11F460FF04C06F5F7F4F49
:103BD0008F4F9F4F089557FD9058440F551F59F030
:103BE0005F3F71F04795880F97FB991F61F09F3FEA
:103BF00079F087950895121613061406551FF2CF13
:103C00004695F1DF08C0161617061806991FF1CF62
:103C100086957105610508940895E894BB27662789
:103C20007727CB0197F90895052E97FB1EF4009492
:103C30000E942B1E57FD07D00E943E1E07FC03D09A
:103C40004EF40C942B1E50954095309521953F4F86
:103C50004F4F5F4F089590958095709561957F4F78
:103C60008F4F9F4F08950E94601EA59F900DB49F97
:103C7000900DA49F800D911D11240895A1E21A2E8C
:103C8000AA1BBB1BFD010DC0AA1FBB1FEE1FFF1F00
:103C9000A217B307E407F50720F0A21BB30BE40B50
:103CA000F50B661F771F881F991F1A9469F7609597
:103CB0007095809590959B01AC01BD01CF01089551
:103CC000A29FB001B39FC001A39F700D811D11245D
:103CD000911DB29F700D811D1124911D089597FBB8
:103CE000072E16F4009407D077FD09D00E94921E8B
:103CF00007FC05D03EF4909581959F4F08957095EF
:103D000061957F4F0895EE0FFF1F881F8BBF0790AF
:103D1000F691E02D19940E94601EB7FF0895821B52
:103D2000930B0895AA1BBB1B51E107C0AA1FBB1F21
:103D3000A617B70710F0A61BB70B881F991F5A9537
:103D4000A9F780959095BC01CD0108955058BB27E7
:103D5000AA270E94BE1E0C94DA1D0E94CC1D38F0CA
:103D60000E94D31D20F039F49F3F19F426F40C94DF
:103D7000C91D0EF4E095E7FB0C94C31DE92F0E94CA
:103D8000EB1D58F3BA17620773078407950720F0F5
:103D900079F4A6F50C940D1E0EF4E0950B2EBA2FB7
:103DA000A02D0B01B90190010C01CA01A001112441
:103DB000FF27591B99F0593F50F4503E68F11A16ED
:103DC000F040A22F232F342F4427585FF3CF46957E
:103DD00037952795A795F0405395C9F77EF41F16A0
:103DE000BA0B620B730B840BBAF09150A1F0FF0F6A
:103DF000BB1F661F771F881FC2F70EC0BA0F621F56
:103E0000731F841F48F4879577956795B795F79545
:103E10009E3F08F0B0CF9395880F08F09927EE0FDA
:103E20009795879508950E94321D08F48FEF0895A5
:103E30000E94321D880B990B08950F931F93CF9307
:103E4000DF938230910510F482E090E0E091EF087A
:103E5000F091F00830E020E0B0E0A0E0309799F475
:103E60002115310509F44AC0281B390B24303105CE
:103E7000D8F58A819B816115710589F1FB019383D6
:103E80008283FE0111C04081518102811381481754
:103E90005907E0F04817590799F4109761F0129606
:103EA0000C93129713961C933296CF01DF91CF910A
:103EB0001F910F9108950093EF081093F008F4CF2D
:103EC0002115310551F04217530738F0A901DB01E4
:103ED0009A01BD01DF01F801C1CFEF01F9CF909345
:103EE000F0088093EF08CDCFFE01E20FF31F81931E
:103EF00091932250310939832883D7CF2091ED083F
:103F00003091EE08232B41F42091030230910402FA
:103F10003093EE082093ED082091010230910202C7
:103F20002115310541F42DB73EB74091050250915E
:103F30000602241B350BE091ED08F091EE08E21724
:103F4000F307A0F42E1B3F0B2817390778F0AC01BC
:103F50004E5F5F4F2417350748F04E0F5F1F509399
:103F6000EE084093ED08819391939FCFF0E0E0E05D
:103F70009CCFCF93DF930097E9F0FC013297138237
:103F80001282A091EF08B091F008ED0130E020E03E
:103F90001097A1F420813181820F931F2091ED08A9
:103FA0003091EE082817390709F061C0F093EE0848
:103FB000E093ED08DF91CF910895EA01CE17DF0776
:103FC000E8F54A815B819E0141155105B1F7E90190
:103FD000FB83EA8349915991C40FD51FEC17FD0764
:103FE00061F4808191810296840F951FE901998384
:103FF0008883828193819B838A83F0E0E0E012963C
:104000008D919C9113970097B9F52D913C91119743
:10401000CD010296820F931F2091ED083091EE089A
:104020002817390739F6309751F51092F008109299
:10403000EF08B093EE08A093ED08BCCFD383C28302
:1040400040815181840F951FC817D90761F44E5FD5
:104050005F4F88819981480F591F518340838A811E
:104060009B81938382832115310509F0B0CFF093B2
:10407000F008E093EF089ECFFD01DC01C0CF138272
:104080001282D7CF4F925F926F927F928F929F92C0
:10409000AF92BF92CF92DF92EF92FF920F931F9356
:1040A000CF93DF938C01009799F4CB01DF91CF91EF
:1040B0001F910F91FF90EF90DF90CF90BF90AF9046
:1040C0009F908F907F906F905F904F900C941D1FEA
:1040D000FC01E60FF71F9C0122503109E217F3079C
:1040E00008F4AEC0D901CD91DC911197C617D7075E
:1040F00020F1C530D10578F0CE01049786179707D7
:1041000050F0C61BD70B2297C193D1936D937C932C
:10411000CF010E94B91FC801DF91CF911F910F916C
:10412000FF90EF90DF90CF90BF90AF909F908F90D7
:104130007F906F905F904F9008955B01AC1ABD0A1D
:104140004C018C0E9D1EA091EF08B091F008512CEF
:10415000412CF12CE12C109731F58091ED089091D4
:10416000EE088815990509F05CC04616570608F058
:1041700058C08091010290910202009741F48DB7DE
:104180009EB74091050250910602841B950BE817DB
:10419000F90708F055C0F093EE08E093ED08F90137
:1041A00071836083B8CF8D919C91119712966C901A
:1041B000129713967C901397A815B90559F56C01C1
:1041C00042E0C40ED11CCA14DB0420F1AC014A1930
:1041D0005B09DA011296159780F06282738251832F
:1041E0004083D9016D937C93E114F10471F0D70100
:1041F0001396FC93EE9312978ECF22968C0F9D1FF1
:10420000F90191838083F301EFCFF093F008E093FD
:10421000EF0881CF4816590608F42C017D01D3011F
:104220009ACFCB010E941D1F7C01009749F0AE017F
:10423000B8010E942321C8010E94B91F87016BCFDA
:1042400010E000E068CFFB01DC0102C001900D929C
:1042500041505040D8F70895FB01DC018D91019049
:1042600080190110D9F3990B0895FB01DC0101902D
:104270000D920020E1F708950F931F93CF93DF93E2
:10428000CDB7DEB72E970FB6F894DEBF0FBECDBF09
:104290000E891F89888D998D26E02C831A830983C6
:1042A00097FF02C080E090E801979E838D83AE0166
:1042B000445E5F4F6A8D7B8DCE0101960E9479210D
:1042C0004D815E8157FD0AC02F8138854217530703
:1042D0000CF49A01020F131FF80110822E960FB6EC
:1042E000F894DEBF0FBECDBFDF91CF911F910F912C
:1042F00008952F923F924F925F926F927F928F928A
:104300009F92AF92BF92CF92DF92EF92FF920F9364
:104310001F93CF93DF9300D000D000D01F921F9245
:10432000CDB7DEB77C013B018A01FC011782168202
:10433000838181FFDDC1CE0101965C01F70193818C
:10434000F30193FD859193FF81913F01882309F447
:1043500053C1853239F493FD859193FF81913F01DB
:10436000853229F4B70190E00E949123E7CF912C88
:10437000212C312CFFE1F31538F08B3211F190F440
:10438000803209F1833229F137FC3CC020ED280F3F
:104390002A3050F536FE20C08AE0989E200D112468
:1043A000922E06C08D3291F0803371F7689430F808
:1043B000F30193FD859193FF81913F018111DACF44
:1043C00021C0689431F8689432F8F2CF689433F8D9
:1043D000EFCF689434F8ECCFEAE02E9E200D112444
:1043E000222E689435F8E4CF8E3229F436FC04C1CD
:1043F000689436F8DDCF8C3619F4689437F8D8CF46
:104400008836B1F2982F9F7D95549330E0F0833633
:10441000A1F18337C1F1833509F063C02801F2E0CF
:104420004F0E511CF801C080D180692D70E036FC20
:1044300002C06FEF7FEFC6010E947B234C0168949E
:1044400037F882010AC00C5F1F4FFFE3F98388240D
:104450008394912C6501E89437F833FE2DC0522CDB
:104460008114910471F5552009F468CFB70180E2F9
:1044700090E00E9491235A94F6CFF80180818983BD
:104480000E5F1F4FE4CF2801F2E04F0E511CF801E0
:10449000C080D180692D70E036FC02C06FEF7FEFE5
:1044A000C6010E9486234C018201D5CFB70180E26C
:1044B00090E00E9491232A942814190409F0B0F77F
:1044C000CECFF60137FC859137FE81916F01B701A0
:1044D00090E00E94912351105A94F1E08F1A9108B4
:1044E000BFCF843619F0893609F077C0F80137FE5E
:1044F0006BC060817181828193810C5F1F4FF32DAE
:10450000FF763F2E97FF09C0909580957095619535
:104510007F4F8F4F9F4F689437F82AE030E0A50116
:104520000E94C123C82ECA188C2C432C36FE0CC006
:10453000E89440F8C91440F434FE05C032FC03C0CE
:10454000F32DFE7E4F2E892C44FEAAC0FE01EC0DF9
:10455000F11D8081803309F09CC0242D297E422EDC
:10456000842D8870582E43FCAAC040FEA4C09C2C09
:10457000821418F42C0C922C981844FEA6C0B70193
:1045800080E390E00E94912342FE09C088E790E01A
:1045900041FE02C088E590E0B7010E949123C91452
:1045A00008F49FC0CA94D12C9FEFC91AD90ACA0C2B
:1045B000DB1CF60182916F01B70190E00E9491230C
:1045C000AC14BD04B1F74FCF60817181072E000C90
:1045D000880B990B0E5F1F4F92CFD32CE894D4F821
:1045E0002AE030E08537E1F1232D297FD22E8F3666
:1045F000A9F1F0F4883551F1F701868197812B9666
:104600000FB6F894DEBF0FBECDBFDF91CF911F91E3
:104610000F91FF90EF90DF90CF90BF90AF909F9061
:104620008F907F906F905F904F903F902F90089564
:10463000803749F0883701F7D4FE02C06894D2F879
:1046400020E130E00DC06894D4F8F6CF34FE03C00A
:10465000822F8660D82E20E132E002C028E030E0D0
:10466000F801D7FE0FC060817181828193810C5F58
:104670001F4FA5010E94C123C82ECA183D2CE894E3
:1046800037F852CF6081718190E080E00E5F1F4F5C
:10469000F0CF42FC02C0839463CF8394839460CFB5
:1046A000842D867809F45CCFF6CFB70180E290E0E4
:1046B0000E94912383948214C0F3512C5ECF522C1C
:1046C0005818821408F459CFF8CF842D867809F44D
:1046D00066CF8BE241FE80E247FC8DE2B70190E0BD
:1046E0005CCFB70180E390E00E9491239A9457CF6A
:1046F0008FEF9FEF84CFFC01059061507040011057
:10470000D8F7809590958E0F9F1F0895FC016150FA
:10471000704001900110D8F7809590958E0F9F1FE3
:1047200008950F931F93CF93DF93182F092FEB0159
:104730008B8181FD09C01FEF0FEF812F902FDF913B
:10474000CF911F910F91089582FF14C02E813F8158
:104750008C819D81281739073CF4E881F981CF01CC
:1047600001969983888310838E819F8101969F8310
:104770008E83E3CFE885F985812F1995892BA1F3E5
:10478000DACFFA01AA27283051F1203181F1E894DB
:104790006F936E7F6E5F7F4F8F4F9F4FAF4FB1E034
:1047A0003ED0B4E03CD0670F781F891F9A1FA11D2F
:1047B000680F791F8A1F911DA11D6A0F711D811D30
:1047C000911DA11D20D009F468943F912AE0269FF5
:1047D00011243019305D3193DEF6CF010895462F54
:1047E0004770405D4193B3E00FD0C9F7F6CF462F35
:1047F0004F70405D4A3318F0495D31FD405241939E
:1048000002D0A9F7EACFB4E0A6959795879577955A
:104810006795BA95C9F700976105710508959B01E1
:10482000AC010A2E06945795479537952795BA956A
:10483000C9F7620F731F841F951FA01D089512E012
:10484000C2EDD2E000E006C0802FFE010E94831E70
:104850002196011DC33DD10780E00807A9F7F89410
:02486000FFCF88
:10486200FF0000F10880000000400014005400F036
:1048720006FB06060710071907220700000000BE04
:104882000391036C0B67038A03770368030000003C
:1048920000CC0936096309340A94097209860900B1
:1048A200000000E00B36096C0BF0080D0A004F46C1
:1048B20046007B22726F6F6D223A22313031222CF8
:1048C20022646576696365223A2200222C2273747F
:1048D200617465223A2200222C22726561736F6E26
:1048E200223A22006163747561746F722F636F6E76
:1048F20074726F6C007B22726F6F6D223A223130BC
:1049020031222C2274797065223A2200222C226CE8
:104912006576656C223A002C22736576657269743D
:1049220079223A22435249544943414C222C226172
:104932006374696F6E223A2245564143554154458C
:10494200222C22736D735F746172676574223A223E
:1049520061646D696E227D00616C6572742F656D94
:10496200657267656E63790045564143554154450A
:10497200204E4F5721002121200020212100747256
:1049820075650066616C7365006F63637570616E57
:1049920063795F646574656374656400726F6F6DDB
:1049A2005F656D70747900636F325F76656E7469EE
:1049B2006C6174696F6E0074656D70657261747597
:1049C20072655F636F6E74726F6C0055002D004CE0
:1049D200004F00496E697469616C697A696E672E6D
:1049E2002E2E0053432D494553202076312E300080
:1049F20055522D43535420426C6F636B2042005238
:104A02006F6F6D20313031204F6E6C696E65004DD5
:104A120051545420427269646765204F4E005365B9
:104A22006E736F7273205265616479007B22726FBC
:104A32006F6D223A22313031222C226275696C6408
:104A4200696E67223A22435354222C226E6F6465A8
:104A5200223A2261726475696E6F2D6D65676122FB
:104A62002C22737461747573223A224F4E4C494E54
:104A720045222C2273656E736F7273223A5B225049
:104A82004952222C224448543232222C224D513196
:104A92003335222C224D5132222C224643333722E7
:104AA2002C2252464944225D7D0073797374656DF0
:104AB2002F737461747573007B22726F6F6D223A6B
:104AC20022313031222C226F636375706965642252
:104AD2003A747275652C22736F75726365223A227D
:104AE2005049525F48432D5352353031227D007375
:104AF200656E736F722F6F63637570616E63790099
:104B02007B22726F6F6D223A22313031222C226F5A
:104B120063637570696564223A66616C73652C2201
:104B2200726561736F6E223A22696E61637469768F
:104B32006974795F74696D656F7574222C2274696A
:104B42006D656F75745F73223A32307D0057656C04
:104B5200636F6D6521007B22726F6F6D223A223185
:104B62003031222C2263617264223A2200222C22EA
:104B720073747564656E74223A2200222C22737457
:104B820061747573223A224752414E544544222C95
:104B920022757074696D655F6D73223A0072666981
:104BA200642F617474656E64616E636500556E6B2B
:104BB2006E6F776E20436172642100414343455317
:104BC200532044454E494544007B22726F6F6D224B
:104BD2003A22313031222C2274797065223A2255E0
:104BE2004E415554484F52495A45445F414343450B
:104BF2005353222C227365766572697479223A22A4
:104C020048494748222C22616374696F6E223A2216
:104C120073656375726974795F6E6F7469666965CD
:104C220064227D00616C6572742F736563757269AD
:104C32007479007B22726F6F6D223A2231303122F9
:104C42002C2274656D70223A002C2268756D223A0E
:104C5200002C22636F32223A002C22736D6F6B6537
:104C6200223A002C22666C6F6F64223A002C226F6B
:104C720063637570696564223A0073656E736F725F
:104C82002F656E7669726F6E6D656E74004649525D
:104C92004500464C4F4F44007B22726F6F6D223AA3
:104CA20022313031222C2274797065223A22434C0F
:104CB200454152222C22737461747573223A227216
:104CC20065736F6C766564227D006C6967687473C6
:104CD2000066616E006175746F5F6F6666007B22AD
:104CE200726F6F6D223A22313031222C2270706D38
:104CF200223A002C227365766572697479223A220F
:104D0200435249544943414C227D00616C6572749F
:104D12002F636F32002C2273657665726974792273
:104D22003A225741524E494E47227D00543A25734A
:104D32004320483A252E3066252500257325732504
:104D420073257300434F323A252D346420257300B6
:104D5200546572656E6365204A2E004D61727469F6
:104D6200616C204B2E0044616E69656C20492E00F7
:104D720041314232433344340045354636473748A1
:0C4D8200380049394A304B314C320000F7
:00000001FF
